{
  "contractName": "ZombieFactory",
  "abi": [
    {
      "anonymous": false,
      "inputs": [
        {
          "indexed": false,
          "internalType": "uint256",
          "name": "zombieId",
          "type": "uint256"
        },
        {
          "indexed": false,
          "internalType": "string",
          "name": "name",
          "type": "string"
        },
        {
          "indexed": false,
          "internalType": "uint256",
          "name": "dna",
          "type": "uint256"
        }
      ],
      "name": "NewZombie",
      "type": "event"
    },
    {
      "inputs": [
        {
          "internalType": "uint256",
          "name": "",
          "type": "uint256"
        }
      ],
      "name": "zombieToOwner",
      "outputs": [
        {
          "internalType": "address",
          "name": "",
          "type": "address"
        }
      ],
      "stateMutability": "view",
      "type": "function"
    },
    {
      "inputs": [
        {
          "internalType": "uint256",
          "name": "",
          "type": "uint256"
        }
      ],
      "name": "zombies",
      "outputs": [
        {
          "internalType": "string",
          "name": "name",
          "type": "string"
        },
        {
          "internalType": "uint256",
          "name": "dna",
          "type": "uint256"
        }
      ],
      "stateMutability": "view",
      "type": "function"
    },
    {
      "inputs": [],
      "name": "_getZombiesCount",
      "outputs": [
        {
          "internalType": "uint256",
          "name": "",
          "type": "uint256"
        }
      ],
      "stateMutability": "view",
      "type": "function"
    },
    {
      "inputs": [
        {
          "internalType": "string",
          "name": "_name",
          "type": "string"
        }
      ],
      "name": "createRandomZombie",
      "outputs": [],
      "stateMutability": "nonpayable",
      "type": "function"
    }
  ],
  "bytecode": "0x60806040526010600055600054600a6200001a9190620001be565b6001553480156200002a57600080fd5b506200020f565b7f4e487b7100000000000000000000000000000000000000000000000000000000600052601160045260246000fd5b60008160011c9050919050565b6000808291508390505b6001851115620000bf5780860481111562000097576200009662000031565b5b6001851615620000a75780820291505b8081029050620000b78562000060565b945062000077565b94509492505050565b600082620000da5760019050620001ad565b81620000ea5760009050620001ad565b81600181146200010357600281146200010e5762000144565b6001915050620001ad565b60ff84111562000123576200012262000031565b5b8360020a9150848211156200013d576200013c62000031565b5b50620001ad565b5060208310610133831016604e8410600b84101617156200017e5782820a90508381111562000178576200017762000031565b5b620001ad565b6200018d84848460016200006d565b92509050818404811115620001a757620001a662000031565b5b81810290505b9392505050565b6000819050919050565b6000620001cb82620001b4565b9150620001d883620001b4565b9250620002077fffffffffffffffffffffffffffffffffffffffffffffffffffffffffffffffff8484620000c8565b905092915050565b610a1b806200021f6000396000f3fe608060405234801561001057600080fd5b506004361061004c5760003560e01c80632052465e14610051578063528b7b8f146100825780637bff0a01146100b2578063e53f8390146100ce575b600080fd5b61006b600480360381019061006691906104ef565b6100ec565b6040516100799291906105c4565b60405180910390f35b61009c600480360381019061009791906104ef565b6101a8565b6040516100a99190610635565b60405180910390f35b6100cc60048036038101906100c79190610785565b6101db565b005b6100d6610242565b6040516100e391906107ce565b60405180910390f35b600281815481106100fc57600080fd5b906000526020600020906002020160009150905080600001805461011f90610818565b80601f016020809104026020016040519081016040528092919081815260200182805461014b90610818565b80156101985780601f1061016d57610100808354040283529160200191610198565b820191906000526020600020905b81548152906001019060200180831161017b57829003601f168201915b5050505050908060010154905082565b60036020528060005260406000206000915054906101000a900473ffffffffffffffffffffffffffffffffffffffff1681565b6000600460003373ffffffffffffffffffffffffffffffffffffffff1673ffffffffffffffffffffffffffffffffffffffff168152602001908152602001600020541461022757600080fd5b60006102328261024f565b905061023e8282610294565b5050565b6000600280549050905090565b600080826040516020016102639190610885565b6040516020818303038152906040528051906020012060001c90506001548161028c91906108cb565b915050919050565b60006040518060400160405280848152602001838152509050600281908060018154018082558091505060019003906000526020600020906002020160009091909190915060008201518160000190805190602001906102f5929190610402565b506020820151816001015550506000600161030e610242565b610318919061092b565b9050336003600083815260200190815260200160002060006101000a81548173ffffffffffffffffffffffffffffffffffffffff021916908373ffffffffffffffffffffffffffffffffffffffff160217905550600460003373ffffffffffffffffffffffffffffffffffffffff1673ffffffffffffffffffffffffffffffffffffffff16815260200190815260200160002060008154809291906103bc9061095f565b91905055507f88f026aacbbecc90c18411df4b1185fd8d9be2470f1962f192bf84a27d0704b78185856040516103f4939291906109a7565b60405180910390a150505050565b82805461040e90610818565b90600052602060002090601f0160209004810192826104305760008555610477565b82601f1061044957805160ff1916838001178555610477565b82800160010185558215610477579182015b8281111561047657825182559160200191906001019061045b565b5b5090506104849190610488565b5090565b5b808211156104a1576000816000905550600101610489565b5090565b6000604051905090565b600080fd5b600080fd5b6000819050919050565b6104cc816104b9565b81146104d757600080fd5b50565b6000813590506104e9816104c3565b92915050565b600060208284031215610505576105046104af565b5b6000610513848285016104da565b91505092915050565b600081519050919050565b600082825260208201905092915050565b60005b8381101561055657808201518184015260208101905061053b565b83811115610565576000848401525b50505050565b6000601f19601f8301169050919050565b60006105878261051c565b6105918185610527565b93506105a1818560208601610538565b6105aa8161056b565b840191505092915050565b6105be816104b9565b82525050565b600060408201905081810360008301526105de818561057c565b90506105ed60208301846105b5565b9392505050565b600073ffffffffffffffffffffffffffffffffffffffff82169050919050565b600061061f826105f4565b9050919050565b61062f81610614565b82525050565b600060208201905061064a6000830184610626565b92915050565b600080fd5b600080fd5b7f4e487b7100000000000000000000000000000000000000000000000000000000600052604160045260246000fd5b6106928261056b565b810181811067ffffffffffffffff821117156106b1576106b061065a565b5b80604052505050565b60006106c46104a5565b90506106d08282610689565b919050565b600067ffffffffffffffff8211156106f0576106ef61065a565b5b6106f98261056b565b9050602081019050919050565b82818337600083830152505050565b6000610728610723846106d5565b6106ba565b90508281526020810184848401111561074457610743610655565b5b61074f848285610706565b509392505050565b600082601f83011261076c5761076b610650565b5b813561077c848260208601610715565b91505092915050565b60006020828403121561079b5761079a6104af565b5b600082013567ffffffffffffffff8111156107b9576107b86104b4565b5b6107c584828501610757565b91505092915050565b60006020820190506107e360008301846105b5565b92915050565b7f4e487b7100000000000000000000000000000000000000000000000000000000600052602260045260246000fd5b6000600282049050600182168061083057607f821691505b602082108103610843576108426107e9565b5b50919050565b600081905092915050565b600061085f8261051c565b6108698185610849565b9350610879818560208601610538565b80840191505092915050565b60006108918284610854565b915081905092915050565b7f4e487b7100000000000000000000000000000000000000000000000000000000600052601260045260246000fd5b60006108d6826104b9565b91506108e1836104b9565b9250826108f1576108f061089c565b5b828206905092915050565b7f4e487b7100000000000000000000000000000000000000000000000000000000600052601160045260246000fd5b6000610936826104b9565b9150610941836104b9565b925082821015610954576109536108fc565b5b828203905092915050565b600061096a826104b9565b91507fffffffffffffffffffffffffffffffffffffffffffffffffffffffffffffffff820361099c5761099b6108fc565b5b600182019050919050565b60006060820190506109bc60008301866105b5565b81810360208301526109ce818561057c565b90506109dd60408301846105b5565b94935050505056fea2646970667358221220dc9a51fa9064a2765ceaade4c66c93bb357459f42a9c4687ecd1aadc4181a8d864736f6c634300080e0033",
  "immutableReferences": {},
  "source": "// SPDX-License-Identifier: MIT\npragma solidity >=0.4.22 <0.9.0;\n\ncontract ZombieFactory {\n\n    event NewZombie(uint zombieId, string name, uint dna);\n\n    uint dnaDigits = 16;\n    uint dnaModulus = 10 ** dnaDigits;\n\n    struct Zombie {\n        string name;\n        uint dna;\n    }\n\n    Zombie[] public zombies;\n\n    mapping (uint => address) public zombieToOwner;\n    mapping (address => uint) ownerZombieCount;\n\n    function _getZombiesCount() view public returns (uint) {\n        return zombies.length;\n    }\n    // edit function definition below\n    function _createZombie(string memory _name, uint _dna) private {\n        Zombie memory newZombie =  Zombie(_name, _dna);\n        zombies.push(newZombie);\n        uint id = _getZombiesCount() - 1;\n        zombieToOwner[id] = msg.sender;\n        ownerZombieCount[msg.sender]++;\n        emit NewZombie(id, _name, _dna);\n    }\n\n    function _generateRandomDna(string memory _str) private view returns (uint) {\n        uint rand = uint(keccak256(abi.encodePacked(_str)));\n        return rand % dnaModulus;\n    }\n\n    function createRandomZombie(string memory _name) public {\n        require(ownerZombieCount[msg.sender] == 0);\n        uint randDna = _generateRandomDna(_name);\n        _createZombie(_name, randDna);\n    }\n\n}\n",
  "sourcePath": "/Users/bardesonlucky/Documents/apps/lessons/greeterApp/contracts/zombie.sol",
  "compiler": {
    "name": "solc",
    "version": "0.8.14+commit.80d49f37.Emscripten.clang"
  },
  "schemaVersion": "3.4.7",
  "updatedAt": "2022-06-29T17:34:06.201Z",
  "devdoc": {
    "kind": "dev",
    "methods": {},
    "version": 1
  },
  "userdoc": {
    "kind": "user",
    "methods": {},
    "version": 1
  }
}